:100000000EC01CC0CCC01AC019C018C017C016C082
:1000100015C014C013C012C0C1C010C00FC011243D
:100020001FBECFEDCDBF14BE0FB6F894A89581B515
:10003000886181BD11BC0FBE02D0B2C0E1CF80E8A3
:1000400091E00FB6F89486BD96BD0FBE88B980B515
:100050008F6080BD85B7877E806185BF87B38B60E9
:1000600087BB88B38C6188BB90E020E533ECF90155
:100070003197F1F788B38C7F816088BBF9013197A4
:10008000F1F788B38C7F826088BB9F5F943078F3F0
:1000900088B38C7F88BB88E198E00FB6F894A89568
:1000A00081BD0FBE91BD81B5886481BDAB9A8BB710
:1000B00080628BBF7894B1E050E0A0E0C0E0E0E067
:1000C000F0E060E090E031E070E046C0492F4F1B67
:1000D000433008F0B32F81111BC0A11101C0C92FFB
:1000E000C498BC9A572F892F8C1BA32F803F18F0E0
:1000F000BC98C49AA72F511118C0C39A88B38C7F9B
:10010000816088BBE32F1AC0F92FE5CFF92FE3CF29
:10011000E11108C051110BC0C39A88B38C7F88BB12
:10012000E52F0CC0AA2339F3DECFE52F01C0E72F5E
:1001300088B38C7F826088BBC398532FF89401B436
:1001400006FE08C085B7806285BF7894889585B71C
:100150008F7D85BF7894622F01B406FC04C081B501
:10016000886481BD9F5F86B3232F482F447082FD32
:10017000272F80714111AACF6111C6CFBB2309F48B
:10018000C5CFE11104C0432F5111472F542FB62F73
:10019000F92F8111BFCFB62FF92F9FCF1895189542
:0401A000F894FFCF01
:00000001FF
